{
  "contractName": "Referral",
  "abi": [
    {
      "constant": true,
      "inputs": [
        {
          "name": "",
          "type": "address"
        }
      ],
      "name": "accounts",
      "outputs": [
        {
          "name": "referrer",
          "type": "address"
        },
        {
          "name": "reward",
          "type": "uint256"
        },
        {
          "name": "referredCount",
          "type": "uint256"
        },
        {
          "name": "lastActiveTimestamp",
          "type": "uint256"
        }
      ],
      "payable": false,
      "stateMutability": "view",
      "type": "function"
    },
    {
      "constant": false,
      "inputs": [],
      "name": "renounceOwnership",
      "outputs": [],
      "payable": false,
      "stateMutability": "nonpayable",
      "type": "function"
    },
    {
      "constant": true,
      "inputs": [],
      "name": "owner",
      "outputs": [
        {
          "name": "",
          "type": "address"
        }
      ],
      "payable": false,
      "stateMutability": "view",
      "type": "function"
    },
    {
      "constant": true,
      "inputs": [],
      "name": "isOwner",
      "outputs": [
        {
          "name": "",
          "type": "bool"
        }
      ],
      "payable": false,
      "stateMutability": "view",
      "type": "function"
    },
    {
      "constant": false,
      "inputs": [
        {
          "name": "newOwner",
          "type": "address"
        }
      ],
      "name": "transferOwnership",
      "outputs": [],
      "payable": false,
      "stateMutability": "nonpayable",
      "type": "function"
    },
    {
      "inputs": [
        {
          "name": "_decimals",
          "type": "uint256"
        },
        {
          "name": "_referralBonus",
          "type": "uint256"
        },
        {
          "name": "_secondsUntilInactive",
          "type": "uint256"
        },
        {
          "name": "_onlyRewardActiveReferrers",
          "type": "bool"
        },
        {
          "name": "_levelRate",
          "type": "uint256[]"
        },
        {
          "name": "_refereeBonusRateMap",
          "type": "uint256[]"
        }
      ],
      "payable": false,
      "stateMutability": "nonpayable",
      "type": "constructor"
    },
    {
      "anonymous": false,
      "inputs": [
        {
          "indexed": false,
          "name": "referee",
          "type": "address"
        },
        {
          "indexed": false,
          "name": "referrer",
          "type": "address"
        }
      ],
      "name": "RegisteredReferer",
      "type": "event"
    },
    {
      "anonymous": false,
      "inputs": [
        {
          "indexed": false,
          "name": "referee",
          "type": "address"
        },
        {
          "indexed": false,
          "name": "referrer",
          "type": "address"
        },
        {
          "indexed": false,
          "name": "reason",
          "type": "string"
        }
      ],
      "name": "RegisteredRefererFailed",
      "type": "event"
    },
    {
      "anonymous": false,
      "inputs": [
        {
          "indexed": false,
          "name": "from",
          "type": "address"
        },
        {
          "indexed": false,
          "name": "to",
          "type": "address"
        },
        {
          "indexed": false,
          "name": "amount",
          "type": "uint256"
        },
        {
          "indexed": false,
          "name": "level",
          "type": "uint256"
        }
      ],
      "name": "PaidReferral",
      "type": "event"
    },
    {
      "anonymous": false,
      "inputs": [
        {
          "indexed": false,
          "name": "user",
          "type": "address"
        },
        {
          "indexed": false,
          "name": "timestamp",
          "type": "uint256"
        }
      ],
      "name": "UpdatedUserLastActiveTime",
      "type": "event"
    },
    {
      "anonymous": false,
      "inputs": [
        {
          "indexed": true,
          "name": "previousOwner",
          "type": "address"
        },
        {
          "indexed": true,
          "name": "newOwner",
          "type": "address"
        }
      ],
      "name": "OwnershipTransferred",
      "type": "event"
    },
    {
      "constant": true,
      "inputs": [
        {
          "name": "data",
          "type": "uint256[]"
        }
      ],
      "name": "sum",
      "outputs": [
        {
          "name": "",
          "type": "uint256"
        }
      ],
      "payable": false,
      "stateMutability": "pure",
      "type": "function"
    },
    {
      "constant": true,
      "inputs": [
        {
          "name": "addr",
          "type": "address"
        }
      ],
      "name": "hasReferrer",
      "outputs": [
        {
          "name": "",
          "type": "bool"
        }
      ],
      "payable": false,
      "stateMutability": "view",
      "type": "function"
    },
    {
      "constant": true,
      "inputs": [],
      "name": "getTime",
      "outputs": [
        {
          "name": "",
          "type": "uint256"
        }
      ],
      "payable": false,
      "stateMutability": "view",
      "type": "function"
    },
    {
      "constant": true,
      "inputs": [
        {
          "name": "amount",
          "type": "uint256"
        }
      ],
      "name": "getRefereeBonusRate",
      "outputs": [
        {
          "name": "",
          "type": "uint256"
        }
      ],
      "payable": false,
      "stateMutability": "view",
      "type": "function"
    },
    {
      "constant": false,
      "inputs": [
        {
          "name": "_secondsUntilInactive",
          "type": "uint256"
        }
      ],
      "name": "setSecondsUntilInactive",
      "outputs": [],
      "payable": false,
      "stateMutability": "nonpayable",
      "type": "function"
    },
    {
      "constant": false,
      "inputs": [
        {
          "name": "_onlyRewardActiveReferrers",
          "type": "bool"
        }
      ],
      "name": "setOnlyRewardAActiveReferrers",
      "outputs": [],
      "payable": false,
      "stateMutability": "nonpayable",
      "type": "function"
    }
  ],
  "bytecode": "0x60806040523480156200001157600080fd5b50604051620013f1380380620013f1833981018060405260c08110156200003757600080fd5b810190808051906020019092919080519060200190929190805190602001909291908051906020019092919080516401000000008111156200007857600080fd5b828101905060208101848111156200008f57600080fd5b8151856020820283011164010000000082111715620000ad57600080fd5b50509291906020018051640100000000811115620000ca57600080fd5b82810190506020810184811115620000e157600080fd5b8151856020820283011164010000000082111715620000ff57600080fd5b5050929190505050336000806101000a81548173ffffffffffffffffffffffffffffffffffffffff021916908373ffffffffffffffffffffffffffffffffffffffff1602179055506000809054906101000a900473ffffffffffffffffffffffffffffffffffffffff1673ffffffffffffffffffffffffffffffffffffffff16600073ffffffffffffffffffffffffffffffffffffffff167f8be0079c531659141344cd1fd0a4f28419497f9722a3daafe3b4186f6b6457e060405160405180910390a36000825111151562000263576040517f08c379a00000000000000000000000000000000000000000000000000000000081526004018080602001828103825260258152602001807f526566657272616c206c6576656c2073686f756c64206265206174206c65617381526020017f74206f6e6500000000000000000000000000000000000000000000000000000081525060400191505060405180910390fd5b600360ff1682511115151562000307576040517f08c379a00000000000000000000000000000000000000000000000000000000081526004018080602001828103825260218152602001807f4578636565646564206d617820726566657272616c206c6576656c206465707481526020017f680000000000000000000000000000000000000000000000000000000000000081525060400191505060405180910390fd5b6000600282518115156200031757fe5b06141515620003da576040517f08c379a00000000000000000000000000000000000000000000000000000000081526004018080602001828103825260478152602001807f5265666572656520426f6e75732052617465204d61702073686f756c6420626581526020017f2070617373206173205b3c6c6f77657220616d6f756e743e2c203c726174653e81526020017f2c202e2e2e2e5d0000000000000000000000000000000000000000000000000081525060600191505060405180910390fd5b600360ff1660028251811515620003ed57fe5b04111515156200048b576040517f08c379a00000000000000000000000000000000000000000000000000000000081526004018080602001828103825260278152602001807f4578636565646564206d617820726566657272656520626f6e7573206c65766581526020017f6c2064657074680000000000000000000000000000000000000000000000000081525060400191505060405180910390fd5b85851115151562000504576040517f08c379a000000000000000000000000000000000000000000000000000000000815260040180806020018281038252601b8152602001807f526566657272616c20626f6e757320657863656564732031303025000000000081525060200191505060405180910390fd5b856200051f83620007b8640100000000026401000000009004565b1115151562000596576040517f08c379a000000000000000000000000000000000000000000000000000000000815260040180806020018281038252601d8152602001807f546f74616c206c6576656c20726174652065786365656473203130302500000081525060200191505060405180910390fd5b85600481905550846003819055508360058190555082600660006101000a81548160ff0219169083151502179055508160029080519060200190620005dd929190620007fd565b506000815114156200064b576007604080519081016040528060018152602001600454815250908060018154018082558091505090600182039060005260206000209060020201600090919290919091506000820151816000015560208201518160010155505050620007ac565b60005b8151811015620007aa5760045482600183018151811015156200066d57fe5b90602001906020020151111562000712576040517f08c379a00000000000000000000000000000000000000000000000000000000081526004018080602001828103825260268152602001807f4f6e65206f66207265666572656520626f6e757320726174652065786365656481526020017f732031303025000000000000000000000000000000000000000000000000000081525060400191505060405180910390fd5b6007604080519081016040528084848151811015156200072e57fe5b90602001906020020151815260200184600185018151811015156200074f57fe5b906020019060200201518152509080600181540180825580915050906001820390600052602060002090600202016000909192909190915060008201518160000155602082015181600101555050506002810190506200064e565b505b50505050505062000877565b60008060005b8351811015620007f3578381815181101515620007d757fe5b90602001906020020151820191508080600101915050620007be565b5080915050919050565b8280548282559060005260206000209081019282156200083c579160200282015b828111156200083b5782518255916020019190600101906200081e565b5b5090506200084b91906200084f565b5090565b6200087491905b808211156200087057600081600090555060010162000856565b5090565b90565b610b6a80620008876000396000f3fe6080604052600436106100af576000357c0100000000000000000000000000000000000000000000000000000000900463ffffffff1680630194db8e146100b457806318452cd81461018d578063447e78f5146101f6578063557ed1ba146102315780635e5c06e21461025c578063715018a61461030257806387892629146103195780638da5cb5b146103685780638f32d59b146103bf578063db1058a9146103ee578063f2fde38b1461042b575b600080fd5b3480156100c057600080fd5b50610177600480360360208110156100d757600080fd5b81019080803590602001906401000000008111156100f457600080fd5b82018360208201111561010657600080fd5b8035906020019184602083028401116401000000008311171561012857600080fd5b919080806020026020016040519081016040528093929190818152602001838360200280828437600081840152601f19601f82011690508083019250505050505050919291929050505061047c565b6040518082815260200191505060405180910390f35b34801561019957600080fd5b506101dc600480360360208110156101b057600080fd5b81019080803573ffffffffffffffffffffffffffffffffffffffff1690602001909291905050506104be565b604051808215151515815260200191505060405180910390f35b34801561020257600080fd5b5061022f6004803603602081101561021957600080fd5b8101908080359060200190929190505050610559565b005b34801561023d57600080fd5b506102466105df565b6040518082815260200191505060405180910390f35b34801561026857600080fd5b506102ab6004803603602081101561027f57600080fd5b81019080803573ffffffffffffffffffffffffffffffffffffffff1690602001909291905050506105e7565b604051808573ffffffffffffffffffffffffffffffffffffffff1673ffffffffffffffffffffffffffffffffffffffff16815260200184815260200183815260200182815260200194505050505060405180910390f35b34801561030e57600080fd5b50610317610637565b005b34801561032557600080fd5b506103526004803603602081101561033c57600080fd5b8101908080359060200190929190505050610772565b6040518082815260200191505060405180910390f35b34801561037457600080fd5b5061037d610814565b604051808273ffffffffffffffffffffffffffffffffffffffff1673ffffffffffffffffffffffffffffffffffffffff16815260200191505060405180910390f35b3480156103cb57600080fd5b506103d461083d565b604051808215151515815260200191505060405180910390f35b3480156103fa57600080fd5b506104296004803603602081101561041157600080fd5b81019080803515159060200190929190505050610894565b005b34801561043757600080fd5b5061047a6004803603602081101561044e57600080fd5b81019080803573ffffffffffffffffffffffffffffffffffffffff16906020019092919050505061092d565b005b60008060005b83518110156104b457838181518110151561049957fe5b90602001906020020151820191508080600101915050610482565b5080915050919050565b60008073ffffffffffffffffffffffffffffffffffffffff16600160008473ffffffffffffffffffffffffffffffffffffffff1673ffffffffffffffffffffffffffffffffffffffff16815260200190815260200160002060000160009054906101000a900473ffffffffffffffffffffffffffffffffffffffff1673ffffffffffffffffffffffffffffffffffffffff1614159050919050565b61056161083d565b15156105d5576040517f08c379a00000000000000000000000000000000000000000000000000000000081526004018080602001828103825260208152602001807f4f776e61626c653a2063616c6c6572206973206e6f7420746865206f776e657281525060200191505060405180910390fd5b8060058190555050565b600042905090565b60016020528060005260406000206000915090508060000160009054906101000a900473ffffffffffffffffffffffffffffffffffffffff16908060010154908060020154908060030154905084565b61063f61083d565b15156106b3576040517f08c379a00000000000000000000000000000000000000000000000000000000081526004018080602001828103825260208152602001807f4f776e61626c653a2063616c6c6572206973206e6f7420746865206f776e657281525060200191505060405180910390fd5b600073ffffffffffffffffffffffffffffffffffffffff166000809054906101000a900473ffffffffffffffffffffffffffffffffffffffff1673ffffffffffffffffffffffffffffffffffffffff167f8be0079c531659141344cd1fd0a4f28419497f9722a3daafe3b4186f6b6457e060405160405180910390a360008060006101000a81548173ffffffffffffffffffffffffffffffffffffffff021916908373ffffffffffffffffffffffffffffffffffffffff160217905550565b6000806007600081548110151561078557fe5b90600052602060002090600202016001015490506000600190505b60078054905081101561080a576007818154811015156107bc57fe5b9060005260206000209060020201600001548410156107da5761080a565b6007818154811015156107e957fe5b906000526020600020906002020160010154915080806001019150506107a0565b5080915050919050565b60008060009054906101000a900473ffffffffffffffffffffffffffffffffffffffff16905090565b60008060009054906101000a900473ffffffffffffffffffffffffffffffffffffffff1673ffffffffffffffffffffffffffffffffffffffff163373ffffffffffffffffffffffffffffffffffffffff1614905090565b61089c61083d565b1515610910576040517f08c379a00000000000000000000000000000000000000000000000000000000081526004018080602001828103825260208152602001807f4f776e61626c653a2063616c6c6572206973206e6f7420746865206f776e657281525060200191505060405180910390fd5b80600660006101000a81548160ff02191690831515021790555050565b61093561083d565b15156109a9576040517f08c379a00000000000000000000000000000000000000000000000000000000081526004018080602001828103825260208152602001807f4f776e61626c653a2063616c6c6572206973206e6f7420746865206f776e657281525060200191505060405180910390fd5b6109b2816109b5565b50565b600073ffffffffffffffffffffffffffffffffffffffff168173ffffffffffffffffffffffffffffffffffffffff1614151515610a80576040517f08c379a00000000000000000000000000000000000000000000000000000000081526004018080602001828103825260268152602001807f4f776e61626c653a206e6577206f776e657220697320746865207a65726f206181526020017f646472657373000000000000000000000000000000000000000000000000000081525060400191505060405180910390fd5b8073ffffffffffffffffffffffffffffffffffffffff166000809054906101000a900473ffffffffffffffffffffffffffffffffffffffff1673ffffffffffffffffffffffffffffffffffffffff167f8be0079c531659141344cd1fd0a4f28419497f9722a3daafe3b4186f6b6457e060405160405180910390a3806000806101000a81548173ffffffffffffffffffffffffffffffffffffffff021916908373ffffffffffffffffffffffffffffffffffffffff1602179055505056fea165627a7a723058200d4db4cb92fd1b63d2a9076d6c9a72c25a662013c0971cac3cc5d7b0745bf0f60029",
  "source": "pragma solidity ^0.5.0;\n\nimport \"openzeppelin-solidity/contracts/math/SafeMath.sol\";\nimport \"openzeppelin-solidity/contracts/ownership/Ownable.sol\";\n\ncontract Referral is Ownable {\n  using SafeMath for uint;\n\n  /**\n   * @dev Max referral level depth\n   */\n  uint8 constant MAX_REFER_DEPTH = 3;\n\n  /**\n   * @dev Max referee amount to bonus rate depth\n   */\n  uint8 constant MAX_REFEREE_BONUS_LEVEL = 3;\n\n\n  /**\n   * @dev The struct of account information\n   * @param referrer The referrer addresss\n   * @param reward The total referral reward of an address\n   * @param referredCount The total referral amount of an address\n   * @param lastActiveTimestamp The last active timestamp of an address\n   */\n  struct Account {\n    address payable referrer;\n    uint reward;\n    uint referredCount;\n    uint lastActiveTimestamp;\n  }\n\n  /**\n   * @dev The struct of referee amount to bonus rate\n   * @param lowerBound The minial referee amount\n   * @param rate The bonus rate for each referee amount\n   */\n  struct RefereeBonusRate {\n    uint lowerBound;\n    uint rate;\n  }\n\n  event RegisteredReferer(address referee, address referrer);\n  event RegisteredRefererFailed(address referee, address referrer, string reason);\n  event PaidReferral(address from, address to, uint amount, uint level);\n  event UpdatedUserLastActiveTime(address user, uint timestamp);\n\n  mapping(address => Account) public accounts;\n\n  uint256[] levelRate;\n  uint256 referralBonus;\n  uint256 decimals;\n  uint256 secondsUntilInactive;\n  bool onlyRewardActiveReferrers;\n  RefereeBonusRate[] refereeBonusRateMap;\n\n  /**\n   * @param _decimals The base decimals for float calc, for example 1000\n   * @param _referralBonus The total referral bonus rate, which will divide by decimals. For example, If you will like to set as 5%, it can set as 50 when decimals is 1000.\n   * @param _secondsUntilInactive The seconds that a user does not update will be seen as inactive.\n   * @param _onlyRewardActiveReferrers The flag to enable not paying to inactive uplines.\n   * @param _levelRate The bonus rate for each level, which will divide by decimals too. The max depth is MAX_REFER_DEPTH.\n   * @param _refereeBonusRateMap The bonus rate mapping to each referree amount, which will divide by decimals too. The max depth is MAX_REFER_DEPTH.\n   * The map should be pass as [<lower amount>, <rate>, ....]. For example, you should pass [1, 250, 5, 500, 10, 1000] when decimals is 1000 for the following case.\n   *\n   *  25%     50%     100%\n   *   | ----- | ----- |----->\n   *  1ppl    5ppl    10ppl\n   *\n   * @notice refereeBonusRateMap's lower amount should be ascending\n   */\n  constructor(\n    uint _decimals,\n    uint _referralBonus,\n    uint _secondsUntilInactive,\n    bool _onlyRewardActiveReferrers,\n    uint256[] memory _levelRate,\n    uint256[] memory _refereeBonusRateMap\n  )\n    public\n  {\n    require(_levelRate.length > 0, \"Referral level should be at least one\");\n    require(_levelRate.length <= MAX_REFER_DEPTH, \"Exceeded max referral level depth\");\n    require(_refereeBonusRateMap.length % 2 == 0, \"Referee Bonus Rate Map should be pass as [<lower amount>, <rate>, ....]\");\n    require(_refereeBonusRateMap.length / 2 <= MAX_REFEREE_BONUS_LEVEL, \"Exceeded max referree bonus level depth\");\n    require(_referralBonus <= _decimals, \"Referral bonus exceeds 100%\");\n    require(sum(_levelRate) <= _decimals, \"Total level rate exceeds 100%\");\n\n    decimals = _decimals;\n    referralBonus = _referralBonus;\n    secondsUntilInactive = _secondsUntilInactive;\n    onlyRewardActiveReferrers = _onlyRewardActiveReferrers;\n    levelRate = _levelRate;\n\n    // Set default referee amount rate as 1ppl -> 100% if rate map is empty.\n    if (_refereeBonusRateMap.length == 0) {\n      refereeBonusRateMap.push(RefereeBonusRate(1, decimals));\n      return;\n    }\n\n    for (uint i; i < _refereeBonusRateMap.length; i += 2) {\n      if (_refereeBonusRateMap[i+1] > decimals) {\n        revert(\"One of referee bonus rate exceeds 100%\");\n      }\n      // Cause we can't pass struct or nested array without enabling experimental ABIEncoderV2, use array to simulate it\n      refereeBonusRateMap.push(RefereeBonusRate(_refereeBonusRateMap[i], _refereeBonusRateMap[i+1]));\n    }\n  }\n\n  function sum(uint[] memory data) public pure returns (uint) {\n    uint S;\n    for(uint i;i < data.length;i++) {\n      S += data[i];\n    }\n    return S;\n  }\n\n\n  /**\n   * @dev Utils function for check whether an address has the referrer\n   */\n  function hasReferrer(address addr) public view returns(bool){\n    return accounts[addr].referrer != address(0);\n  }\n\n  /**\n   * @dev Get block timestamp with function for testing mock\n   */\n  function getTime() public view returns(uint256) {\n    return now; // solium-disable-line security/no-block-members\n  }\n\n  /**\n   * @dev Given a user amount to calc in which rate period\n   * @param amount The number of referrees\n   */\n  function getRefereeBonusRate(uint256 amount) public view returns(uint256) {\n    uint rate = refereeBonusRateMap[0].rate;\n    for(uint i = 1; i < refereeBonusRateMap.length; i++) {\n      if (amount < refereeBonusRateMap[i].lowerBound) {\n        break;\n      }\n      rate = refereeBonusRateMap[i].rate;\n    }\n    return rate;\n  }\n\n  function isCircularReference(address referrer, address referee) internal view returns(bool){\n    address parent = referrer;\n\n    for (uint i; i < levelRate.length; i++) {\n      if (parent == address(0)) {\n        break;\n      }\n\n      if (parent == referee) {\n        return true;\n      }\n\n      parent = accounts[parent].referrer;\n    }\n\n    return false;\n  }\n\n  /**\n   * @dev Add an address as referrer\n   * @param referrer The address would set as referrer of msg.sender\n   * @return whether success to add upline\n   */\n  function addReferrer(address payable referrer) internal returns(bool){\n    if (referrer == address(0)) {\n      emit RegisteredRefererFailed(msg.sender, referrer, \"Referrer cannot be 0x0 address\");\n      return false;\n    } else if (isCircularReference(referrer, msg.sender)) {\n      emit RegisteredRefererFailed(msg.sender, referrer, \"Referee cannot be one of referrer uplines\");\n      return false;\n    } else if (accounts[msg.sender].referrer != address(0)) {\n      emit RegisteredRefererFailed(msg.sender, referrer, \"Address have been registered upline\");\n      return false;\n    }\n\n    Account storage userAccount = accounts[msg.sender];\n    Account storage parentAccount = accounts[referrer];\n\n    userAccount.referrer = referrer;\n    userAccount.lastActiveTimestamp = getTime();\n    parentAccount.referredCount = parentAccount.referredCount.add(1);\n\n    emit RegisteredReferer(msg.sender, referrer);\n    return true;\n  }\n\n  /**\n   * @dev This will calc and pay referral to uplines instantly\n   * @param value The number tokens will be calculated in referral process\n   * @return the total referral bonus paid\n   */\n  function payReferral(uint256 value) internal returns(uint256){\n    Account memory userAccount = accounts[msg.sender];\n    uint totalReferal;\n\n    for (uint i; i < levelRate.length; i++) {\n      address payable parent = userAccount.referrer;\n      Account storage parentAccount = accounts[userAccount.referrer];\n\n      if (parent == address(0)) {\n        break;\n      }\n\n      if(onlyRewardActiveReferrers && parentAccount.lastActiveTimestamp.add(secondsUntilInactive) >= getTime() || !onlyRewardActiveReferrers) {\n        uint c = value.mul(referralBonus).div(decimals);\n        c = c.mul(levelRate[i]).div(decimals);\n        c = c.mul(getRefereeBonusRate(parentAccount.referredCount)).div(decimals);\n\n        totalReferal = totalReferal.add(c);\n\n        parentAccount.reward = parentAccount.reward.add(c);\n        parent.transfer(c);\n        emit PaidReferral(msg.sender, parent, c, i + 1);\n      }\n\n      userAccount = parentAccount;\n    }\n\n    updateActiveTimestamp(msg.sender);\n    return totalReferal;\n  }\n\n  /**\n   * @dev Developers should define what kind of actions are seens active. By default, payReferral will active msg.sender.\n   * @param user The address would like to update active time\n   */\n  function updateActiveTimestamp(address user) internal {\n    uint timestamp = getTime();\n    accounts[user].lastActiveTimestamp = timestamp;\n    emit UpdatedUserLastActiveTime(user, timestamp);\n  }\n\n  function setSecondsUntilInactive(uint _secondsUntilInactive) public onlyOwner {\n    secondsUntilInactive = _secondsUntilInactive;\n  }\n\n  function setOnlyRewardAActiveReferrers(bool _onlyRewardActiveReferrers) public onlyOwner {\n    onlyRewardActiveReferrers = _onlyRewardActiveReferrers;\n  }\n}\n",
  "sourcePath": "@thundercore/referral-solidity/contracts/Referral.sol",
  "compiler": {
    "name": "solc",
    "version": "0.5.0+commit.1d4f565a.Emscripten.clang"
  },
  "schemaVersion": "3.0.11",
  "updatedAt": "2019-07-21T04:36:54.878Z",
  "devdoc": {
    "methods": {
      "constructor": {
        "params": {
          "_decimals": "The base decimals for float calc, for example 1000",
          "_levelRate": "The bonus rate for each level, which will divide by decimals too. The max depth is MAX_REFER_DEPTH.",
          "_onlyRewardActiveReferrers": "The flag to enable not paying to inactive uplines.",
          "_refereeBonusRateMap": "The bonus rate mapping to each referree amount, which will divide by decimals too. The max depth is MAX_REFER_DEPTH. The map should be pass as [<lower amount>, <rate>, ....]. For example, you should pass [1, 250, 5, 500, 10, 1000] when decimals is 1000 for the following case.   *  25%     50%     100%  | ----- | ----- |-----> 1ppl    5ppl    10ppl",
          "_referralBonus": "The total referral bonus rate, which will divide by decimals. For example, If you will like to set as 5%, it can set as 50 when decimals is 1000.",
          "_secondsUntilInactive": "The seconds that a user does not update will be seen as inactive."
        }
      },
      "getRefereeBonusRate(uint256)": {
        "details": "Given a user amount to calc in which rate period",
        "params": {
          "amount": "The number of referrees"
        }
      },
      "getTime()": {
        "details": "Get block timestamp with function for testing mock"
      },
      "hasReferrer(address)": {
        "details": "Utils function for check whether an address has the referrer"
      },
      "isOwner()": {
        "details": "Returns true if the caller is the current owner."
      },
      "owner()": {
        "details": "Returns the address of the current owner."
      },
      "renounceOwnership()": {
        "details": "Leaves the contract without owner. It will not be possible to call `onlyOwner` functions anymore. Can only be called by the current owner.     * > Note: Renouncing ownership will leave the contract without an owner, thereby removing any functionality that is only available to the owner."
      },
      "transferOwnership(address)": {
        "details": "Transfers ownership of the contract to a new account (`newOwner`). Can only be called by the current owner."
      }
    }
  },
  "userdoc": {
    "methods": {
      "constructor": "refereeBonusRateMap's lower amount should be ascending"
    }
  }
}