{
  "contractName": "Referral",
  "abi": [
    {
      "constant": true,
      "inputs": [
        {
          "name": "",
          "type": "address"
        }
      ],
      "name": "accounts",
      "outputs": [
        {
          "name": "referrer",
          "type": "address"
        },
        {
          "name": "reward",
          "type": "uint256"
        },
        {
          "name": "referredCount",
          "type": "uint256"
        },
        {
          "name": "lastActiveTimestamp",
          "type": "uint256"
        }
      ],
      "payable": false,
      "stateMutability": "view",
      "type": "function"
    },
    {
      "constant": false,
      "inputs": [],
      "name": "renounceOwnership",
      "outputs": [],
      "payable": false,
      "stateMutability": "nonpayable",
      "type": "function"
    },
    {
      "constant": true,
      "inputs": [],
      "name": "owner",
      "outputs": [
        {
          "name": "",
          "type": "address"
        }
      ],
      "payable": false,
      "stateMutability": "view",
      "type": "function"
    },
    {
      "constant": true,
      "inputs": [],
      "name": "isOwner",
      "outputs": [
        {
          "name": "",
          "type": "bool"
        }
      ],
      "payable": false,
      "stateMutability": "view",
      "type": "function"
    },
    {
      "constant": false,
      "inputs": [
        {
          "name": "newOwner",
          "type": "address"
        }
      ],
      "name": "transferOwnership",
      "outputs": [],
      "payable": false,
      "stateMutability": "nonpayable",
      "type": "function"
    },
    {
      "inputs": [
        {
          "name": "_decimals",
          "type": "uint256"
        },
        {
          "name": "_referralBonus",
          "type": "uint256"
        },
        {
          "name": "_secondsUntilInactive",
          "type": "uint256"
        },
        {
          "name": "_onlyRewardActiveReferrers",
          "type": "bool"
        },
        {
          "name": "_levelRate",
          "type": "uint256[]"
        },
        {
          "name": "_refereeBonusRateMap",
          "type": "uint256[]"
        }
      ],
      "payable": false,
      "stateMutability": "nonpayable",
      "type": "constructor"
    },
    {
      "anonymous": false,
      "inputs": [
        {
          "indexed": false,
          "name": "referee",
          "type": "address"
        },
        {
          "indexed": false,
          "name": "referrer",
          "type": "address"
        }
      ],
      "name": "RegisteredReferer",
      "type": "event"
    },
    {
      "anonymous": false,
      "inputs": [
        {
          "indexed": false,
          "name": "referee",
          "type": "address"
        },
        {
          "indexed": false,
          "name": "referrer",
          "type": "address"
        },
        {
          "indexed": false,
          "name": "reason",
          "type": "string"
        }
      ],
      "name": "RegisteredRefererFailed",
      "type": "event"
    },
    {
      "anonymous": false,
      "inputs": [
        {
          "indexed": false,
          "name": "from",
          "type": "address"
        },
        {
          "indexed": false,
          "name": "to",
          "type": "address"
        },
        {
          "indexed": false,
          "name": "amount",
          "type": "uint256"
        },
        {
          "indexed": false,
          "name": "level",
          "type": "uint256"
        }
      ],
      "name": "PaidReferral",
      "type": "event"
    },
    {
      "anonymous": false,
      "inputs": [
        {
          "indexed": false,
          "name": "user",
          "type": "address"
        },
        {
          "indexed": false,
          "name": "timestamp",
          "type": "uint256"
        }
      ],
      "name": "UpdatedUserLastActiveTime",
      "type": "event"
    },
    {
      "anonymous": false,
      "inputs": [
        {
          "indexed": true,
          "name": "previousOwner",
          "type": "address"
        },
        {
          "indexed": true,
          "name": "newOwner",
          "type": "address"
        }
      ],
      "name": "OwnershipTransferred",
      "type": "event"
    },
    {
      "constant": true,
      "inputs": [
        {
          "name": "data",
          "type": "uint256[]"
        }
      ],
      "name": "sum",
      "outputs": [
        {
          "name": "",
          "type": "uint256"
        }
      ],
      "payable": false,
      "stateMutability": "pure",
      "type": "function"
    },
    {
      "constant": true,
      "inputs": [
        {
          "name": "addr",
          "type": "address"
        }
      ],
      "name": "hasReferrer",
      "outputs": [
        {
          "name": "",
          "type": "bool"
        }
      ],
      "payable": false,
      "stateMutability": "view",
      "type": "function"
    },
    {
      "constant": true,
      "inputs": [],
      "name": "getTime",
      "outputs": [
        {
          "name": "",
          "type": "uint256"
        }
      ],
      "payable": false,
      "stateMutability": "view",
      "type": "function"
    },
    {
      "constant": true,
      "inputs": [
        {
          "name": "amount",
          "type": "uint256"
        }
      ],
      "name": "getRefereeBonusRate",
      "outputs": [
        {
          "name": "",
          "type": "uint256"
        }
      ],
      "payable": false,
      "stateMutability": "view",
      "type": "function"
    },
    {
      "constant": false,
      "inputs": [
        {
          "name": "_secondsUntilInactive",
          "type": "uint256"
        }
      ],
      "name": "setSecondsUntilInactive",
      "outputs": [],
      "payable": false,
      "stateMutability": "nonpayable",
      "type": "function"
    },
    {
      "constant": false,
      "inputs": [
        {
          "name": "_onlyRewardActiveReferrers",
          "type": "bool"
        }
      ],
      "name": "setOnlyRewardAActiveReferrers",
      "outputs": [],
      "payable": false,
      "stateMutability": "nonpayable",
      "type": "function"
    }
  ],
  "bytecode": "0x60806040523480156200001157600080fd5b5060405162000f1e38038062000f1e833981018060405260c08110156200003757600080fd5b8151602083015160408401516060850151608086018051949693959294919392830192916401000000008111156200006e57600080fd5b820160208101848111156200008257600080fd5b8151856020820283011164010000000082111715620000a057600080fd5b50509291906020018051640100000000811115620000bd57600080fd5b82016020810184811115620000d157600080fd5b8151856020820283011164010000000082111715620000ef57600080fd5b5050929190505050600062000112620006dc640100000000026401000000009004565b60008054600160a060020a031916600160a060020a0383169081178255604051929350917f8be0079c531659141344cd1fd0a4f28419497f9722a3daafe3b4186f6b6457e0908290a3508151600010620001f357604080517f08c379a000000000000000000000000000000000000000000000000000000000815260206004820152602560248201527f526566657272616c206c6576656c2073686f756c64206265206174206c65617360448201527f74206f6e65000000000000000000000000000000000000000000000000000000606482015290519081900360840190fd5b8151600310156200028b57604080517f08c379a000000000000000000000000000000000000000000000000000000000815260206004820152602160248201527f4578636565646564206d617820726566657272616c206c6576656c206465707460448201527f6800000000000000000000000000000000000000000000000000000000000000606482015290519081900360840190fd5b8051600116156200034957604080517f08c379a000000000000000000000000000000000000000000000000000000000815260206004820152604760248201527f5265666572656520426f6e75732052617465204d61702073686f756c6420626560448201527f2070617373206173205b3c6c6f77657220616d6f756e743e2c203c726174653e60648201527f2c202e2e2e2e5d00000000000000000000000000000000000000000000000000608482015290519081900360a40190fd5b8051600390600290041115620003e657604080517f08c379a000000000000000000000000000000000000000000000000000000000815260206004820152602760248201527f4578636565646564206d617820726566657272656520626f6e7573206c65766560448201527f6c20646570746800000000000000000000000000000000000000000000000000606482015290519081900360840190fd5b858511156200045657604080517f08c379a000000000000000000000000000000000000000000000000000000000815260206004820152601b60248201527f526566657272616c20626f6e7573206578636565647320313030250000000000604482015290519081900360640190fd5b856200046b83640100000000620006e1810204565b1115620004d957604080517f08c379a000000000000000000000000000000000000000000000000000000000815260206004820152601d60248201527f546f74616c206c6576656c207261746520657863656564732031303025000000604482015290519081900360640190fd5b6004869055600385905560058490556006805460ff191684151517905581516200050b9060029060208501906200071f565b508051151562000593576040805180820190915260018082526004546020830190815260078054928301815560005291517fa66cc928b5edb82af9bd49922954155ab7b0942694bea4ce44661d9a8736c68860029092029182015590517fa66cc928b5edb82af9bd49922954155ab7b0942694bea4ce44661d9a8736c68990910155620006d0565b60005b8151811015620006ce576004548282600101815181101515620005b557fe5b9060200190602002015111156200065357604080517f08c379a000000000000000000000000000000000000000000000000000000000815260206004820152602660248201527f4f6e65206f66207265666572656520626f6e757320726174652065786365656460448201527f7320313030250000000000000000000000000000000000000000000000000000606482015290519081900360840190fd5b6007604080519081016040528084848151811015156200066f57fe5b90602001906020020151815260200184846001018151811015156200069057fe5b602090810290910181015190915282546001818101855560009485529382902083516002928302909101908155929091015191909201550162000596565b505b5050505050506200078c565b335b90565b60008060005b8351811015620007185783818151811015156200070057fe5b602090810290910101519190910190600101620006e7565b5092915050565b8280548282559060005260206000209081019282156200075d579160200282015b828111156200075d57825182559160200191906001019062000740565b506200076b9291506200076f565b5090565b620006de91905b808211156200076b576000815560010162000776565b610782806200079c6000396000f3fe6080604052600436106100ae5763ffffffff7c01000000000000000000000000000000000000000000000000000000006000350416630194db8e81146100b357806318452cd814610175578063447e78f5146101bc578063557ed1ba146101e85780635e5c06e2146101fd578063715018a61461026057806387892629146102755780638da5cb5b1461029f5780638f32d59b146102d0578063db1058a9146102e5578063f2fde38b14610311575b600080fd5b3480156100bf57600080fd5b50610163600480360360208110156100d657600080fd5b8101906020810181356401000000008111156100f157600080fd5b82018360208201111561010357600080fd5b8035906020019184602083028401116401000000008311171561012557600080fd5b919080806020026020016040519081016040528093929190818152602001838360200280828437600092019190915250929550610344945050505050565b60408051918252519081900360200190f35b34801561018157600080fd5b506101a86004803603602081101561019857600080fd5b5035600160a060020a031661037f565b604080519115158252519081900360200190f35b3480156101c857600080fd5b506101e6600480360360208110156101df57600080fd5b503561039f565b005b3480156101f457600080fd5b506101636103f0565b34801561020957600080fd5b506102306004803603602081101561022057600080fd5b5035600160a060020a03166103f4565b60408051600160a060020a0390951685526020850193909352838301919091526060830152519081900360800190f35b34801561026c57600080fd5b506101e6610428565b34801561028157600080fd5b506101636004803603602081101561029857600080fd5b50356104cb565b3480156102ab57600080fd5b506102b461055a565b60408051600160a060020a039092168252519081900360200190f35b3480156102dc57600080fd5b506101a8610569565b3480156102f157600080fd5b506101e66004803603602081101561030857600080fd5b5035151561058d565b34801561031d57600080fd5b506101e66004803603602081101561033457600080fd5b5035600160a060020a03166105ec565b60008060005b835181101561037857838181518110151561036157fe5b60209081029091010151919091019060010161034a565b5092915050565b600160a060020a0390811660009081526001602052604090205416151590565b6103a7610569565b15156103eb576040805160e560020a62461bcd0281526020600482018190526024820152600080516020610737833981519152604482015290519081900360640190fd5b600555565b4290565b60016020819052600091825260409091208054918101546002820154600390920154600160a060020a039093169290919084565b610430610569565b1515610474576040805160e560020a62461bcd0281526020600482018190526024820152600080516020610737833981519152604482015290519081900360640190fd5b60008054604051600160a060020a03909116907f8be0079c531659141344cd1fd0a4f28419497f9722a3daafe3b4186f6b6457e0908390a36000805473ffffffffffffffffffffffffffffffffffffffff19169055565b600080600760008154811015156104de57fe5b90600052602060002090600202016001015490506000600190505b60075481101561037857600780548290811061051157fe5b90600052602060002090600202016000015484101561052f57610378565b600780548290811061053d57fe5b6000918252602090912060016002909202018101549250016104f9565b600054600160a060020a031690565b60008054600160a060020a031661057e610644565b600160a060020a031614905090565b610595610569565b15156105d9576040805160e560020a62461bcd0281526020600482018190526024820152600080516020610737833981519152604482015290519081900360640190fd5b6006805460ff1916911515919091179055565b6105f4610569565b1515610638576040805160e560020a62461bcd0281526020600482018190526024820152600080516020610737833981519152604482015290519081900360640190fd5b61064181610648565b50565b3390565b600160a060020a03811615156106ce576040805160e560020a62461bcd02815260206004820152602660248201527f4f776e61626c653a206e6577206f776e657220697320746865207a65726f206160448201527f6464726573730000000000000000000000000000000000000000000000000000606482015290519081900360840190fd5b60008054604051600160a060020a03808516939216917f8be0079c531659141344cd1fd0a4f28419497f9722a3daafe3b4186f6b6457e091a36000805473ffffffffffffffffffffffffffffffffffffffff1916600160a060020a039290921691909117905556fe4f776e61626c653a2063616c6c6572206973206e6f7420746865206f776e6572a165627a7a72305820dc1a1f6d5758b9f675a655d37157d399685b8b4d39bbe73f61200d8a25245d7d0029",
  "source": "pragma solidity ^0.5.0;\n\nimport \"openzeppelin-solidity/contracts/math/SafeMath.sol\";\nimport \"openzeppelin-solidity/contracts/ownership/Ownable.sol\";\n\ncontract Referral is Ownable {\n  using SafeMath for uint;\n\n  /**\n   * @dev Max referral level depth\n   */\n  uint8 constant MAX_REFER_DEPTH = 3;\n\n  /**\n   * @dev Max referee amount to bonus rate depth\n   */\n  uint8 constant MAX_REFEREE_BONUS_LEVEL = 3;\n\n\n  /**\n   * @dev The struct of account information\n   * @param referrer The referrer addresss\n   * @param reward The total referral reward of an address\n   * @param referredCount The total referral amount of an address\n   * @param lastActiveTimestamp The last active timestamp of an address\n   */\n  struct Account {\n    address payable referrer;\n    uint reward;\n    uint referredCount;\n    uint lastActiveTimestamp;\n  }\n\n  /**\n   * @dev The struct of referee amount to bonus rate\n   * @param lowerBound The minial referee amount\n   * @param rate The bonus rate for each referee amount\n   */\n  struct RefereeBonusRate {\n    uint lowerBound;\n    uint rate;\n  }\n\n  event RegisteredReferer(address referee, address referrer);\n  event RegisteredRefererFailed(address referee, address referrer, string reason);\n  event PaidReferral(address from, address to, uint amount, uint level);\n  event UpdatedUserLastActiveTime(address user, uint timestamp);\n\n  mapping(address => Account) public accounts;\n\n  uint256[] levelRate;\n  uint256 referralBonus;\n  uint256 decimals;\n  uint256 secondsUntilInactive;\n  bool onlyRewardActiveReferrers;\n  RefereeBonusRate[] refereeBonusRateMap;\n\n  /**\n   * @param _decimals The base decimals for float calc, for example 1000\n   * @param _referralBonus The total referral bonus rate, which will divide by decimals. For example, If you will like to set as 5%, it can set as 50 when decimals is 1000.\n   * @param _secondsUntilInactive The seconds that a user does not update will be seen as inactive.\n   * @param _onlyRewardActiveReferrers The flag to enable not paying to inactive uplines.\n   * @param _levelRate The bonus rate for each level, which will divide by decimals too. The max depth is MAX_REFER_DEPTH.\n   * @param _refereeBonusRateMap The bonus rate mapping to each referree amount, which will divide by decimals too. The max depth is MAX_REFER_DEPTH.\n   * The map should be pass as [<lower amount>, <rate>, ....]. For example, you should pass [1, 250, 5, 500, 10, 1000] when decimals is 1000 for the following case.\n   *\n   *  25%     50%     100%\n   *   | ----- | ----- |----->\n   *  1ppl    5ppl    10ppl\n   *\n   * @notice refereeBonusRateMap's lower amount should be ascending\n   */\n  constructor(\n    uint _decimals,\n    uint _referralBonus,\n    uint _secondsUntilInactive,\n    bool _onlyRewardActiveReferrers,\n    uint256[] memory _levelRate,\n    uint256[] memory _refereeBonusRateMap\n  )\n    public\n  {\n    require(_levelRate.length > 0, \"Referral level should be at least one\");\n    require(_levelRate.length <= MAX_REFER_DEPTH, \"Exceeded max referral level depth\");\n    require(_refereeBonusRateMap.length % 2 == 0, \"Referee Bonus Rate Map should be pass as [<lower amount>, <rate>, ....]\");\n    require(_refereeBonusRateMap.length / 2 <= MAX_REFEREE_BONUS_LEVEL, \"Exceeded max referree bonus level depth\");\n    require(_referralBonus <= _decimals, \"Referral bonus exceeds 100%\");\n    require(sum(_levelRate) <= _decimals, \"Total level rate exceeds 100%\");\n\n    decimals = _decimals;\n    referralBonus = _referralBonus;\n    secondsUntilInactive = _secondsUntilInactive;\n    onlyRewardActiveReferrers = _onlyRewardActiveReferrers;\n    levelRate = _levelRate;\n\n    // Set default referee amount rate as 1ppl -> 100% if rate map is empty.\n    if (_refereeBonusRateMap.length == 0) {\n      refereeBonusRateMap.push(RefereeBonusRate(1, decimals));\n      return;\n    }\n\n    for (uint i; i < _refereeBonusRateMap.length; i += 2) {\n      if (_refereeBonusRateMap[i+1] > decimals) {\n        revert(\"One of referee bonus rate exceeds 100%\");\n      }\n      // Cause we can't pass struct or nested array without enabling experimental ABIEncoderV2, use array to simulate it\n      refereeBonusRateMap.push(RefereeBonusRate(_refereeBonusRateMap[i], _refereeBonusRateMap[i+1]));\n    }\n  }\n\n  function sum(uint[] memory data) public pure returns (uint) {\n    uint S;\n    for(uint i;i < data.length;i++) {\n      S += data[i];\n    }\n    return S;\n  }\n\n\n  /**\n   * @dev Utils function for check whether an address has the referrer\n   */\n  function hasReferrer(address addr) public view returns(bool){\n    return accounts[addr].referrer != address(0);\n  }\n\n  /**\n   * @dev Get block timestamp with function for testing mock\n   */\n  function getTime() public view returns(uint256) {\n    return now; // solium-disable-line security/no-block-members\n  }\n\n  /**\n   * @dev Given a user amount to calc in which rate period\n   * @param amount The number of referrees\n   */\n  function getRefereeBonusRate(uint256 amount) public view returns(uint256) {\n    uint rate = refereeBonusRateMap[0].rate;\n    for(uint i = 1; i < refereeBonusRateMap.length; i++) {\n      if (amount < refereeBonusRateMap[i].lowerBound) {\n        break;\n      }\n      rate = refereeBonusRateMap[i].rate;\n    }\n    return rate;\n  }\n\n  function isCircularReference(address referrer, address referee) internal view returns(bool){\n    address parent = referrer;\n\n    for (uint i; i < levelRate.length; i++) {\n      if (parent == address(0)) {\n        break;\n      }\n\n      if (parent == referee) {\n        return true;\n      }\n\n      parent = accounts[parent].referrer;\n    }\n\n    return false;\n  }\n\n  /**\n   * @dev Add an address as referrer\n   * @param referrer The address would set as referrer of msg.sender\n   * @return whether success to add upline\n   */\n  function addReferrer(address payable referrer) internal returns(bool){\n    if (referrer == address(0)) {\n      emit RegisteredRefererFailed(msg.sender, referrer, \"Referrer cannot be 0x0 address\");\n      return false;\n    } else if (isCircularReference(referrer, msg.sender)) {\n      emit RegisteredRefererFailed(msg.sender, referrer, \"Referee cannot be one of referrer uplines\");\n      return false;\n    } else if (accounts[msg.sender].referrer != address(0)) {\n      emit RegisteredRefererFailed(msg.sender, referrer, \"Address have been registered upline\");\n      return false;\n    }\n\n    Account storage userAccount = accounts[msg.sender];\n    Account storage parentAccount = accounts[referrer];\n\n    userAccount.referrer = referrer;\n    userAccount.lastActiveTimestamp = getTime();\n    parentAccount.referredCount = parentAccount.referredCount.add(1);\n\n    emit RegisteredReferer(msg.sender, referrer);\n    return true;\n  }\n\n  /**\n   * @dev This will calc and pay referral to uplines instantly\n   * @param value The number tokens will be calculated in referral process\n   * @return the total referral bonus paid\n   */\n  function payReferral(uint256 value) internal returns(uint256){\n    Account memory userAccount = accounts[msg.sender];\n    uint totalReferal;\n\n    for (uint i; i < levelRate.length; i++) {\n      address payable parent = userAccount.referrer;\n      Account storage parentAccount = accounts[userAccount.referrer];\n\n      if (parent == address(0)) {\n        break;\n      }\n\n      if(onlyRewardActiveReferrers && parentAccount.lastActiveTimestamp.add(secondsUntilInactive) >= getTime() || !onlyRewardActiveReferrers) {\n        uint c = value.mul(referralBonus).div(decimals);\n        c = c.mul(levelRate[i]).div(decimals);\n        c = c.mul(getRefereeBonusRate(parentAccount.referredCount)).div(decimals);\n\n        totalReferal = totalReferal.add(c);\n\n        parentAccount.reward = parentAccount.reward.add(c);\n        parent.transfer(c);\n        emit PaidReferral(msg.sender, parent, c, i + 1);\n      }\n\n      userAccount = parentAccount;\n    }\n\n    updateActiveTimestamp(msg.sender);\n    return totalReferal;\n  }\n\n  /**\n   * @dev Developers should define what kind of actions are seens active. By default, payReferral will active msg.sender.\n   * @param user The address would like to update active time\n   */\n  function updateActiveTimestamp(address user) internal {\n    uint timestamp = getTime();\n    accounts[user].lastActiveTimestamp = timestamp;\n    emit UpdatedUserLastActiveTime(user, timestamp);\n  }\n\n  function setSecondsUntilInactive(uint _secondsUntilInactive) public onlyOwner {\n    secondsUntilInactive = _secondsUntilInactive;\n  }\n\n  function setOnlyRewardAActiveReferrers(bool _onlyRewardActiveReferrers) public onlyOwner {\n    onlyRewardActiveReferrers = _onlyRewardActiveReferrers;\n  }\n}\n",
  "sourcePath": "@thundercore/referral-solidity/contracts/Referral.sol",
  "compiler": {
    "name": "solc",
    "version": "0.5.0+commit.1d4f565a.Emscripten.clang"
  },
  "schemaVersion": "3.4.1",
  "updatedAt": "2021-05-24T02:55:41.448Z",
  "devdoc": {
    "methods": {
      "constructor": {
        "params": {
          "_decimals": "The base decimals for float calc, for example 1000",
          "_levelRate": "The bonus rate for each level, which will divide by decimals too. The max depth is MAX_REFER_DEPTH.",
          "_onlyRewardActiveReferrers": "The flag to enable not paying to inactive uplines.",
          "_refereeBonusRateMap": "The bonus rate mapping to each referree amount, which will divide by decimals too. The max depth is MAX_REFER_DEPTH. The map should be pass as [<lower amount>, <rate>, ....]. For example, you should pass [1, 250, 5, 500, 10, 1000] when decimals is 1000 for the following case.   *  25%     50%     100%  | ----- | ----- |-----> 1ppl    5ppl    10ppl",
          "_referralBonus": "The total referral bonus rate, which will divide by decimals. For example, If you will like to set as 5%, it can set as 50 when decimals is 1000.",
          "_secondsUntilInactive": "The seconds that a user does not update will be seen as inactive."
        }
      },
      "getRefereeBonusRate(uint256)": {
        "details": "Given a user amount to calc in which rate period",
        "params": {
          "amount": "The number of referrees"
        }
      },
      "getTime()": {
        "details": "Get block timestamp with function for testing mock"
      },
      "hasReferrer(address)": {
        "details": "Utils function for check whether an address has the referrer"
      },
      "isOwner()": {
        "details": "Returns true if the caller is the current owner."
      },
      "owner()": {
        "details": "Returns the address of the current owner."
      },
      "renounceOwnership()": {
        "details": "Leaves the contract without owner. It will not be possible to call `onlyOwner` functions anymore. Can only be called by the current owner.     * NOTE: Renouncing ownership will leave the contract without an owner, thereby removing any functionality that is only available to the owner."
      },
      "transferOwnership(address)": {
        "details": "Transfers ownership of the contract to a new account (`newOwner`). Can only be called by the current owner."
      }
    }
  },
  "userdoc": {
    "methods": {
      "constructor": "refereeBonusRateMap's lower amount should be ascending"
    }
  }
}